:0C0000000C944F000C947C000C948500C4
:10000C000C9400000C9400000C9400000C94000064
:10001C000C9400000C9400000C9400000C94000054
:10002C000C9400000C9400000C9400000C94000044
:10003C000C9400000C9400000C9400000C948E00A6
:10004C000C9400000C940000000000000000FFFF66
:10005C00556E6C6F636B0057726F6E6720506173D7
:10006C00730050617373204368616E6765640000B0
:10007C0080C001002D4E414E00494E460000080044
:10008C000400540002007C017C00010081017E0010
:10009C000000F894EE27ECBBF1E0FBBFEBBFE5BF33
:1000AC008DE0A2E0BB27ED938A95E9F780E094E020
:1000BC00A0E6ED930197E9F7EAE8F0E085919591D8
:1000CC00009761F0A591B59105901590BF01F001D5
:1000DC0005900D920197E1F7FB01F0CFEFE5EDBF35
:1000EC00E4E0EEBFC0E6D1E00C9425010E945F0273
:1000FC0019F4F30131973F010E94740292C00E94DF
:10010C005F0219F4F30131963F010E94740289C019
:10011C000A921A92FA926A937A938A939A93AA936E
:10012C00BA93EA93FA93EFB7EA931FD1F50131969C
:10013C005F01042C052809F04DC0A0E6B1E0EE0FDC
:10014C00FF1FEA0FFB1F60827182F501A0E6B1E090
:10015C00EE0FFF1FAE0FBF1F0D901C90F501A0E01E
:10016C00B0E0EE0FFF1FAE0FBF1F0E94C502E015DF
:10017C00F10519F4F40131964F010E9478020E94A6
:10018C00820241F50E94820229F4E6E0F0E0E815D3
:10019C00F90509F00CC0E9D0ACE5B0E01AD1969A9B
:1001AC00A8EBBBE00E94BB0296980E9487020E94BB
:1001BC00820229F4E6E0F0E08E169F060CF00AC0ED
:1001CC00D4D0A3E6B0E005D1A0EABFE00E94BB0208
:1001DC000E948702E1E0F0E0E415F50511F50E94BC
:1001EC00B002F501A0E0B0E0EE0FFF1FAE0FBF1F95
:1001FC00F3010E94D5020E94820299F4EFEFFFEF07
:10020C005F018824992444245524AFD0AEE6B0E095
:10021C00E0D0A0EDB7E00E94BB02A7D0ACE6B1E005
:10022C00C9D0E991EFBFF991E991B991A99199914F
:10023C00899179916991F990199009901895E0E05C
:10024C00EABBEBBBE7BBE4E0E8BBE0E0E4BBE5BB4F
:10025C00E0E4E1BBEEE0E2BBE0E0E3BFE2BFECBF19
:10026C00EFBDEEBDEDBDECBDE7BDE6BDEBBDEABD42
:10027C00E9BDE8BDE2BDE5BDE4BDE3BDE9BFEBB75B
:10028C00E06EEBBFE5B7E160E5BFE5B7ED7FE5BF3D
:10029C00E5B7E460E5BFE5B7E77FE5BFE4B7EF7B23
:1002AC00E4BFE0E4EABFE0E0EAB9E0E8E8B9E0E0A6
:1002BC00E0BFE6B9EDB9E6BFA0E19ED078940E940C
:1002CC00B0020E94B002A2E3B0E00E94BB0281998E
:1002DC001BC0EFEFFFEF5F01E1E0F0E02F01E5E085
:1002EC00F0E0AE16BF062CF4E1E0F0E0E415F50505
:1002FC0009F00AC0E1E0F0E02F010E94B002A2E395
:10030C00B0E00E94BB02EBCF819BFECFDACFFFCFD8
:10031C00AA93E5B3EF70AE2FE881E07FEA2BE5BB43
:10032C008DE08A95F1F7AA9A8DE08A95F1F7AA9853
:10033C008DE08A95F1F78DC0AA93A881E9DFE88159
:10034C00E295E883A881E4DF85E88A95F1F781C01E
:10035C00AA93E881F0E0E458FE4FE081A981AE0F4A
:10036C00EBDFD980C88022960895A2E0E5DF0E94D9
:10037C007402ACE0E1DFA1E0DFDF0E947402E0E098
:10038C00CE2EDE2E0895AA93A881AA3021F0E091FA
:10039C008001DE1648F0E0E0EA93C394AC2DD8DF80
:1003AC00A881AA3009F455C0D394A89AA881C4DFB7
:1003BC00A8984FC0BA93AA931A93A981BA81ED91C8
:1003CC00A983BA831E2FE03019F0A12FDCDFF5CF03
:1003DC0010C0BA93AA931A93E981FA813196E983F2
:1003EC00FA833197E4911E2FE03019F0A12FCBDF67
:1003FC00F3CF188123960895AA93E4B3E06FE4BB7E
:10040C00A29AA09AA19AAA98A898A998E881E09390
:10041C008001E058E0937E01E881E054E0937F0195
:10042C00A4E1B0E00E94BB020E94B3020E94B3029E
:10043C000E94B302A0E26CDF88EC90E00197F1F728
:10044C00A8E27ADFA4E078DFA5E876DFA6E074DF27
:10045C008CDF21960895BA93AA93A991B991E99149
:10046C00F99130962AF4E095F09531966DE26D9302
:10047C00E89480E197E20DD088EE93E00AD084E610
:10048C00992707D08AE005D06E2F10D066276C9381
:10049C0008956627E817F90720F06395E81BF90B18
:1004AC00C9F7662311F416F008956894605D6D9396
:1004BC0008950A921A92FA926A937A938A939A936B
:1004CC00AA93BA93EA93FA93EFB7EA93A0E08299CE
:1004DC00A1E0E0E08399E1E0EA170895A3E0B0E041
:1004EC000C94BB027A926A92ACE6B1E00E943102A3
:1004FC00ACE6B1E00C94E001E5E0F0E0EA15FB05B8
:10050C0008950E94BB01ACE6B1E00E94E001882492
:10051C009924EFEFFFEF5F01E0E0E0936001E093DF
:10052C006101E2E6F1E0A0E0B0E0A083B183E4E693
:10053C00F1E0A083B183E6E6F1E0A083B183E8E6C5
:10054C00F1E0A083B183EAE6F1E0A083B1836624F5
:10055C00772408950E94BB01C5CFA0E30E948E01B1
:10056C0088EC90E00197F1F70895109639F0A89572
:10057C0080ED97E00197F1F71197C9F7089511965F
:10058C0002D0FE2F1197E199FECFFF93FFB7F8949D
:10059C00AEBBBFBBE09AEDB3FFBFFF91089507D090
:1005AC001196EF93EF2F03D0EF9111970895E19BE4
:1005BC0002C0A895FCCF9FB7F894AEBBBFBBE09A26
:1005CC008DB3E81719F0EDBBE29AE19A9FBF08953D
:00000001FF
